:020000040800F2
:1000000050050020D100000885180008C510000820
:1000100000000000000000000000000000000000E0
:10002000000000000000000000000000F1190008BE
:10003000000000000000000087180008F319000805
:10004000E3000008E3000008E3000008E300000804
:10005000E3000008E3000008E3000008E3000008F4
:10006000E3000008E300000859020008E30000086C
:10007000E3000008E3000008E3000008E3000008D4
:10008000E3000008E300000800000000E3000008AF
:10009000E3000008E3000008E3000008E3000008B4
:1000A000E3000008E3000008E3000008E3000008A4
:1000B000E300000800000000E30000080348854654
:1000C00000F08EF8004800472D1E00085005002063
:1000D0000448804704480047FEE7FEE7FEE7FEE7E6
:1000E000FEE7FEE7611A0008BD00000830B50B46C8
:1000F000014600202022012409E00D46D5409D4202
:1001000005D31D469540491B254695404019154687
:10011000521E002DF1DC30BDF0B51FB406460020A4
:1001200082B005464024019100901BE001992246CF
:100130000F46304600F020F8049A059B801A99413A
:1001400010D310461946224600F039F8361A8F416E
:100150000197224601200021009F00F030F8381856
:100160004D4100902046641E0028DFDC019B009872
:100170002946324607B0F0BD10B5202A04DB0846F8
:10018000203AD040002110BD0B46D340D04020245F
:10019000A21A91400843194610BDD2B201E0027084
:1001A000401C491EFBD270470022F6E710B51346EB
:1001B0000A4604461946FFF7F0FF204610BD10B569
:1001C000202A04DB0146203A9140002010BD9140D6
:1001D00020239C1A0346E3401943904010BD0000C1
:1001E000064C0125064E05E0E36807CC2B430C3C8A
:1001F00098471034B442F7D3FFF764FFE41E0008B9
:10020000041F0008F8B55820694608800124104DE5
:10021000A40200222146284600F0C8F9012202214A
:10022000284600F0C3F97D26F600304600F02EF88F
:10023000642302226946074800F004FE304600F0BD
:1002400025F801222146284600F0B0F9F8BD00004B
:10025000000400482400002010B5024800F078F89F
:1002600010BD00000801002010B5044600680549D3
:1002700040181421FFF73AFF800020640248E06331
:1002800010BD0000F8FFFDBF0000024000E0401E6E
:100290000028FCD17047704770B54379012B13D00B
:1002A0000125457102230371066834683E2393409B
:1002B0009C430B6849680B439340234333600571AB
:1002C00000214171084670BD022070BD70B5040068
:1002D00004D020790025002802D005E0012070BD5F
:1002E0006571204600F008F8022020712561012088
:1002F0002071002070BD000010B586B004461421A6
:100300006846FFF751FF10492068884219D10F480D
:10031000C26941040A43C261C2690A400592426946
:1003200009130A434261406908400590102000907B
:10033000032001900020029009206946C00600F0C9
:1003400091F806B010BD000000740040001002409B
:10035000F0B4C16B0D6801680C680422066C13468A
:10036000B3402B420DD063070BD50B689B0602D41C
:100370000B6893430B60016C8A40C16B4A60C16A91
:1003800019E00227B74002462F4001232032002FF8
:1003900015D0A70713D50C68A40604D40C680A2549
:1003A000AC430C605370036C02219940C36B5960DD
:1003B00000211170816A002916D0F0BC0847082777
:1003C000B7402F4210D024070ED50C680E25AC4341
:1003D0000C60046C1946A140C46B61608363537068
:1003E00000211170016BE6E7F0BC704770B50400A6
:1003F00021D0022120462030054641702268116834
:100400000E48A3680140606826691843E3683343D7
:10041000184363691843A3691843E3691843084301
:1004200010602046FFF720FF0021A16301206870C3
:100430002970084670BD012070BD00000FC0FFFF8D
:1004400070B5044600F0B8F80546601C02D00448B8
:100450000078241800F0B0F8401BA042FAD370BD19
:1004600004000020F8B500238DE001249C40A44640
:1004700022407DD04C68022C01D0122C0CD1DC081B
:10048000A40027183C6A5D07ED0E0F26AE40B4436A
:100490000E69AE4026433E6205685E000324B44008
:1004A0000F79A543BF07BF0FB7402F4307604D68C3
:1004B000012D05D0022D03D0112D01D0122D0ED10A
:1004C0008568CF68A543B7402F4387604768654676
:1004D000AF430D79ED06ED0F9D403D434560C56886
:1004E000A5438C68B4402C43C4604C68E40049D5F3
:1004F000284CA56901263543A561A4699D083440AF
:100500000094254CAD002F19BC689D072E0F0F25B8
:10051000B540AC430925ED06A84201D100250FE006
:100520001E4DA84201D101250AE01D4DA84201D16E
:10053000022505E01B4DA84201D1032500E0052559
:10054000B5402543BD60184C25684E689543F603B9
:1005500000D51543256065684E689543B60300D500
:1005600015436560A5684E689543F60202D500E024
:1005700008E01543A560E5684E689543B60200D5CE
:100580001543E5605B1C0A681446DC4000D06CE74C
:10059000F8BD0000001002400000014000040048C7
:1005A00000080048000C004800040140002A01D067
:1005B0008161704781627047014880687047000020
:1005C0000400002002488168027889188160704721
:1005D0000400002010B50648016810221143016094
:1005E000002000F007F800F027F8002010BD000000
:1005F0000020024070B504460D4D7D202978C000D2
:10060000FFF774FD01460B480068FFF76FFD00F02F
:10061000D9FC002809D1042C07D200222146401E13
:1006200000F02AF800206C6070BD012070BD000051
:10063000040000200000002008B50848816901225C
:1006400011438161816911400091C26901040A432B
:10065000C261C0690840009008BD0000001002405F
:10066000002805DBC106C90E012088400149086049
:100670007047000000E100E010B501F0A5FB10BDDF
:10068000F8B505460068394CC00352D5E06900262C
:10069000C00007D4E16920040143E161E169014040
:1006A0000126009132480168C90510D401688215FD
:1006B00011430160FFF780FF074604E0FFF77CFF6E
:1006C000C01B642824D82A480068C005F6D5206AD3
:1006D00003273F02384020D06968394081421CD04E
:1006E000206A226AB843012109040A432262226A6D
:1006F0008A4322622062C0070FD0FFF75DFF00909F
:1007000008E0FFF759FF0099411A1A48814201D9C0
:100710000320F8BD206A8007F3D5206A6968B843D2
:1007200008432062002E04D0E169012000078143C4
:10073000E1612878C00705D0206BA9688008800097
:10074000084320632878800605D5206B1021884354
:10075000E968084320632888400505D5206B4021BF
:1007600088432969084320630020F8BD0010024037
:100770000070004088130000F8B50F46060059D0FD
:100780003A4D2868C007C00FB84209D2286840080F
:100790004000384328602868C007C00FB84249D1DC
:1007A0003068334C81070CD5400704D560680721B9
:1007B0000902084360606068F0218843B16808431B
:1007C00060603078C00726D0706801280ED021689C
:1007D00002280ED0890700292CDA6168890889006F
:1007E00001436160FFF7E8FE00900DE02168890396
:1007F000F1E78901EFE7FFF7DFFE0099411A1D4895
:10080000814201D90320F8BD60680C21084071685D
:1008100089008842EFD12868C007C00FB8420BD9C1
:10082000286840084000384328602868C007C00F87
:10083000B84201D00120F8BD3078400706D5606885
:10084000072109028843F1680843606000F028F836
:100850006168094A0906090F515CC84007490860E8
:100860000020FFF7C7FE0020F8BD00000020024076
:100870000010024088130000CC1E00080000002079
:100880000448054900684968044A4905490F515C14
:10089000C84070470000002000100240DC1E000825
:1008A00010B515A30FCB88B06C460FC416A30FCBA1
:1008B0000FC4194A51680C200B4603401748042BFB
:1008C00002D0082B02D0164808B010BD8B021B0FB7
:1008D0006C46E45CD26A04AB1207120F9A5CC9033F
:1008E00005D500231946FFF717FC214601E02046F5
:1008F0000C4901F051FAE7E702030405060708096D
:100900000A0B0C0D0E0F1010010203040506070858
:10091000090A0B0C0D0E0F1000100240001BB7004F
:1009200000127A0000093D0030B587B00220019026
:100930000320039000200D46FF2101310C4C029052
:100940000091049061690120400401436161616983
:100950000140059109206946C006FFF783FD6068E4
:100960000F21090688432843606007B030BD0000AE
:1009700000100240FEB5040070D02078DC4DC007A6
:100980004AD068680007800F012807D06868000710
:10099000800F022809D16868C00306D52868800343
:1009A0003AD560680028E7D036E06168012914D0A4
:1009B00001208004002901D0052914D02A680121D2
:1009C00009048A432A6029688143296060680028F5
:1009D00016D0FFF7F1FD06460EE028680121090454
:1009E00008432860F2E7296801432960F5E7FFF72B
:1009F000E3FD801B64286ED828688003F7D50BE0E0
:100A0000FFF7DAFD064604E0FFF7D6FD801B6428F9
:100A1000F1D828688003F7D42078012680070028C1
:100A20003CDA68680007800F07D068680007800F0D
:100A3000022809D16868C00306D42868800716D543
:100A4000E06801280AD112E0E0680028286816D082
:100A500030432860FFF7B0FD074605E043E1FFF7AC
:100A6000ABFDC01B0228C6D828688007F7D52868C8
:100A7000F82188432169C900084328600EE0400836
:100A800040002860FFF798FD074604E0FFF794FD5B
:100A9000C01B0228AFD828688007F7D42078000749
:100AA00022D5E0690028686A0ED030436862FFF7FB
:100AB00083FD074604E0FFF77FFDC01B02289AD89C
:100AC000686A8007F7D50FE0400840006862FFF7CA
:100AD00073FD074605E09DE0FFF76EFDC01B022891
:100AE00089D8686A8007F7D420780427400700284F
:100AF00060DA00200190E869C00008D4E969B8060E
:100B00000143E961E96901400120009101907948C0
:100B10000168C90511D40168821511430160FFF70E
:100B20004BFD009005E0FFF747FD0099401A64284F
:100B300070D870480068C005F5D5A06801280AD0B3
:100B4000002801D0052810D0286A400840002862FB
:100B5000286AB84301E0286A30432862A068002868
:100B600012D0FFF729FD00900AE0286A3843286276
:100B7000F1E7FFF721FD0099411A5F48814249D80A
:100B8000286A8007F5D50DE0FFF716FD009006E016
:100B9000FFF712FD0099411A574881423AD8286A56
:100BA0008007F5D40198002804D0E96901200007E6
:100BB0008143E9612078C00635D5606901280CD0F1
:100BC000401D686B23D038436863686B4008400061
:100BD0006863FFF7F1FC064622E0686B3843686300
:100BE000686B30436863FFF7E7FC064604E0FFF7F5
:100BF000E3FC801B02285BD8686B8007F7D5686B25
:100C0000F8218843A169C900084368630BE0B84331
:100C10006863F4E74CE0FFF7CFFC801B022847D85D
:100C2000686B8007F7D4206A00285ED069680907DE
:100C3000890F022942D0012636060228286805D0ED
:100C4000B0432860FFF7B8FC044633E0B0432860A7
:100C5000FFF7B2FC074604E0FFF7AEFCC01B02281A
:100C600026D828688001F7D4E86AE16A0009000103
:100C70000843E862616AA06A084369683D22120479
:100C8000914308436860286830432860FFF794FC6C
:100C9000044604E0FFF790FC001B022808D82868EF
:100CA0008001F7D521E0FFF787FC001B022801D95E
:100CB0000320FEBD28688001F5D416E00128F8D095
:100CC0006868E96A01221204636A02409A420AD102
:100CD0000907E26A090F914205D10F2189040840F2
:100CE000A16A884201D00120FEBD0020FEBD0000A7
:100CF000001002400070004088130000F8B50400A6
:100D000007D0002625464035A662687F002802D01D
:100D100005E00120F8BD2E77204600F04BF80223B5
:100D20006B77206801684022914301600721E068E9
:100D30000902884201D9002201E0012212030F2793
:100D40003F02B84202D0884200D0A662276B002F33
:100D500005D1884201D9236301E001202063A16805
:100D60006068636908432169194308430123A16945
:100D70005B0219400843E1690843216A0843A16AFC
:100D8000084321680860616B606AA36908431B0C13
:100D90000427E1683B401943084321681043486039
:100DA0002068C1697A029143C16126660120687793
:100DB0000020F8BD70B586B0064614216846FFF7DE
:100DC000F3F91C493068884231D11B498A69801483
:100DD00002438A618A69024005924A6940010243DE
:100DE0004A614969002501400591A0200090022038
:100DF0000190032003900920029569460495C006DE
:100E0000FFF730FB0E4C0D4820601020A56060609D
:100E100025616561A5618020E561E0602046FFF7FE
:100E2000E5FA002801D0FFF736FA7465666206B06D
:100E300070BD000000300140001002403000024050
:100E400008010020FFB5054604464035287F0027ED
:100E500081B01646012809D001202877FFF7ACFBA6
:100E60000090687F012804D00227A5E0022005B089
:100E7000F0BD0298002870D0002E6ED00320687755
:100E8000002020660299A163A687E6872064A880D7
:100E9000E8802065E0640121A068C903884205D18B
:100EA00020680168012292031143016020680168F3
:100EB000490603D401684022114301600720E1681C
:100EC00000028142606826D9002801D0012E1ED17F
:100ED000A06B21680088C86006E0206881688907E7
:100EE00009D5A16B0988C160A06B801CA063E08F4D
:100EF000401EE0870BE0FFF75FFB0099411A049862
:100F0000814202D3401C02D04CE000284AD0E08F3E
:100F10000028E2D139E0002801D0012E32D1E08F43
:100F20000128A06B03D921680088C8600FE0216800
:100F30000078087314E0E08724E02068816889075E
:100F400014D5E18F0129A16B08D90988C160A06B74
:100F5000801CA063E08F801EEDE72CE00978017310
:100F6000A06B401CA063E08F401EE4E7FFF724FB6A
:100F70000099411A0498814202D3401C02D011E02A
:100F800000280FD0E08F0028D7D12046009A04997E
:100F900000F07AFC002801D020202066A0680028FC
:100FA00002D005E0032707E02068C1688068009050
:100FB000206E002800D001270120687700202877C4
:100FC000384654E7094910B5401E884201D901202E
:100FD00010BD074C60610321081F00F0F5FE0020E2
:100FE000A06107202061002010BD0000FFFFFF006E
:100FF00000E000E010B5040003D0606F002802D0CC
:1010000007E0012010BD002170200155204600F0AE
:1010100027F82420606720680168490849000160BA
:10102000204600F0C7FD0128ECD0606A002802D0FD
:10103000204600F02AFD206841680922D20291432F
:101040004160206881682A2291438160206801689C
:10105000012211430160204600F07CFD10BD00001C
:1010600010B586B0044614216846FFF79DF8134971
:10107000206888421FD112488269012189030A43EE
:10108000826182690A4005924269C9000A4342614D
:101090004069084005900320400200900220019022
:1010A000002002900320039001200490092069464B
:1010B000C006FFF7D7F906B010BD000000380140A8
:1010C00000100240FEE710B500228D21104600F00E
:1010D000CDFA00228C21104600F0C8FAC8228B21DC
:1010E000002000F0C3FA00228A21104600F0BEFA68
:1010F00000228921104600F0B9FA0022882110460A
:1011000000F0B4FA00228721104600F0AFFA002266
:101110008621104600F0AAFA00228521104600F030
:10112000A5FAC8228421002000F0A0FA0022832121
:10113000104600F09BFA00228221104600F096FA39
:1011400000228121104600F091FA002280211046F1
:1011500000F08CFA00227F21104600F087FA00226E
:101160007E21104600F082FAC8227D21002000F086
:101170007DFA00227C21104600F078FA00227B21C3
:10118000104600F073FA00227A21104600F06EFA41
:1011900000227921104600F069FA002278211046D9
:1011A00000F064FA50227721002000F05FFA00225C
:1011B0007621104600F05AFA3F227521002000F0F7
:1011C00055FAFF227421002000F050FAF02273211A
:1011D000002000F04BFA66227221002000F046FA4F
:1011E00080227121002000F041FA5022702100205D
:1011F00000F03CFA00226F21104600F037FA00227E
:101200006E21104600F032FA00226D21104600F0E7
:101210002DFA0F226C21002000F028FA9A226B216F
:10122000002000F023FA62226A21002000F01EFA5A
:1012300050226921002000F019FA0022682110468E
:1012400000F014FA3F226721002000F00FFAFF227D
:101250006621002000F00AFAEB226521002000F050
:1012600005FA33226421002000F000FA40226321B5
:10127000002000F0FBF950226221002000F0F6F976
:1012800000226121104600F0F1F900226021104691
:1012900000F0ECF900225F21104600F0E7F914227B
:1012A0005E21002000F0E2F9CD225D21002000F057
:1012B000DDF92D225C21002000F0D8F950225B21BD
:1012C000002000F0D3F900225A21104600F0CEF998
:1012D00000225921104600F0C9F900225821104679
:1012E00000F0C4F900225721104600F0BFF9002297
:1012F0005621104600F0BAF900225521104600F0A0
:10130000B5F900225421104600F0B0F90022532113
:10131000104600F0ABF918225221002000F0A6F987
:1013200000225121104600F0A1F900225021104660
:1013300000F09CF900224F21104600F097F9FF229F
:101340004E21002000F092F900224D21104600F0BD
:101350008DF900224C21104600F088F900224B2123
:10136000104600F083F900224A21104600F07EF971
:1013700000224921104600F079F900224821104648
:1013800000F074F900224721104600F06FF908229E
:101390004621002000F06AF901224521002000F0DA
:1013A00065F906224421002000F060F980224321E3
:1013B000002000F05BF900224221104600F056F9AF
:1013C00000224121104600F051F901224021002065
:1013D00000F04CF900223F21104600F047F90022AE
:1013E0003E21104600F042F900223D21104600F057
:1013F0003DF900223C21104600F038F900223B2143
:10140000104600F033F931223A21002000F02EF985
:1014100000223921104600F029F900222D21104622
:1014200000F024F900222C21104600F01FF90022C0
:101430002B21104600F01AF900222A21104600F054
:1014400015F900222921104600F010F90022282168
:10145000104600F00BF952222721002000F006F977
:101460001F222621002000F001F9FA222521002068
:1014700000F0FCF8F2222421002000F0F7F84122CD
:101480002321002000F0F2F8A4222221002000F005
:10149000EDF820222121002000F0E8F80022202190
:1014A000104600F0E3F82A221F21002000F0DEF8A9
:1014B00006221E21002000F0D9F800221D2110462E
:1014C00000F0D4F81F221C21002000F0CFF80822E1
:1014D0001B21002000F0CAF800221A21104600F05B
:1014E000C5F832221921002000F0C0F8002218218E
:1014F000104600F0BBF800221721104600F0B6F8A5
:1015000000221621104600F0B1F8002215211046E5
:1015100000F0ACF800221421104600F0A7F80022D9
:101520001321104600F0A2F82C221221002000F016
:101530009DF802221121002000F098F8EF221021DE
:10154000002000F093F800220F21104600F08EF8E2
:1015500000220E21104600F089F800220D211046CD
:1015600000F084F800220C21104600F07FF80022E1
:101570000B21104600F07AF800220A21104600F0F4
:1015800075F800220921104600F070F800220821A9
:10159000104600F06BF800220721104600F066F8B4
:1015A00000220621104600F061F8002205211046B5
:1015B00000F05CF800220421104600F057F80022E9
:1015C0000321104600F052F801220221002000F011
:1015D0004DF800220121104600F048F800211822A1
:1015E000084600F043F87D20C000FEF74FFE10BD16
:1015F0003EB500216846017002210171052101728A
:10160000184C002202212046FEF7D0FF0122910251
:101610002046FEF7CBFF0A20FEF738FE7D25ED00C1
:101620002B46012269461048FFF70CFC0A20FEF702
:101630002DFE2B46012201A90B48FFF703FC0A20CF
:10164000FEF724FE2B46012202A90748FFF7FAFB0A
:101650000A20FEF71BFE012202212046FEF7A6FF0C
:101660003EBD0000000400482400002037B5684655
:101670000178017001790171017A0172194C00221F
:1016800002212046FEF792FF012291022046FEF73A
:101690008DFF6420FEF7FAFD64230122694612489B
:1016A000FFF7D0FB6420FEF7F1FD6423012201A9BE
:1016B0000D48FFF7C7FB6420FEF7E8FD6423012215
:1016C00002A90948FFF7BEFB6420FEF7DFFD0122F7
:1016D00002212046FEF76AFF7D20C000FEF7D6FDFE
:1016E0003EBD00000004004824000020F0B587B093
:1016F00014216846FEF758FD3E4842690121C9049D
:101700000A43426142690A4005924269C9000A439C
:10171000426142690A400592426949110A434261A5
:1017200042690A400592426949000A4342614069A0
:101730000022084009210590C806FEF737FF2E4F0A
:10174000002239462D48FEF731FF072040030325CC
:10175000002400906946019502942948FEF782FE14
:101760000920012600900294694601960394C00660
:10177000FEF778FE234800900920694601950294FF
:10178000C006FEF76FFE029469461C48009701965A
:101790000394FEF767FE04200090019469460294CA
:1017A0001648FEF75FFE18480090694601950294BE
:1017B0001248FEF757FE30020090022001900920E7
:1017C0000294039469460494C006FEF74BFEF002AF
:1017D00000900920019469460294C006FEF742FE7B
:1017E000C02000906946019502940848FEF73AFE31
:1017F00007B0F0BD001002400304000000040048E0
:101800000008004846900000F8FB00000014004863
:1018100010B50F480D490160FF21053141600021DD
:101820000722816012020161C260012241615202FD
:101830008261016230224162C26181620722C2621A
:10184000016308214163FFF759FA10BD00300140E0
:101850002400002010B50A48084901604B214902C4
:10186000416000218160C16001618161C1610C2220
:10187000016242614162FFF7BDFB10BD00380140CB
:101880008800002070477047F8B50F460B46154694
:101890000092032104460022C90200F01BF8202612
:1018A000002812D13B46002280212046009500F0FE
:1018B00059F8002809D103213B460022490220465D
:1018C000009500F007F8002803D0206E3043206612
:1018D0000320F8BDF8B51D4617460E46044610E035
:1018E000032149028E4202D1002F00D1007B681CE7
:1018F00007D0FEF761FE0699401AA84208D2002DD3
:1019000006D0206881683140B942E9D10020F8BD95
:1019100020684168E022914341606068C11FFD3941
:101920000CD10121A068C903884202D04911884224
:1019300004D1206801684022914301600120A16A1E
:101940004003814207D121680A6882430A60216806
:101950000A6802430A600120403460770020207743
:101960000320F8BDF8B51D4617460E46044609E0AB
:10197000681C07D0FEF720FE0699401AA8420BD239
:10198000002D09D020688168304688432ED0002081
:10199000B842EDD10020F8BD20684168E0229143B3
:1019A00041606068C11FFD390CD10121A068C903E5
:1019B000884202D04911884204D12068016840223F
:1019C000914301600120A16A4003814207D121684F
:1019D0000A6882430A6021680A6802430A6001209B
:1019E00040346077002020770320F8BD0120CFE746
:1019F000704710B5FEF7E6FD10BD70B596B030210A
:101A00006846FEF7D1FB00240C940D940E9414212B
:101A100010A80F94FEF7C8FB0125092000902804A8
:101A20000990C000019502260A90089607950B942C
:101A30006846FEF79FFF07200C900E9401210D963B
:101A40000F940CA8FEF798FE10A810951294FEF7BC
:101A500017FE002269061046FEF766FF16B070BD3D
:101A6000704710B509240122E40611462046FEF70E
:101A70009DFD3220FEF7E4FC002201212046FEF706
:101A800095FD3220FEF7DCFC10BD10B5818CC90736
:101A900007D001684A6801235B049A43836A1A43AA
:101AA0004A60818C890707D501684A6801231B04B5
:101AB0009A43C36A1A434A60818C490707D5016873
:101AC0004A6801239B049A43036B1A434A60818C42
:101AD000090707D501684A680123DB039A43436B72
:101AE0001A434A60818CC90607D5026891680123B0
:101AF0001B039943836B19439160818C890607D539
:101B000001688A6801235B039A43C36B1A438A60A6
:101B1000818C490612D503685A6801210905046CB5
:101B20008A4322435A60026C8A4207D10268516894
:101B300003235B059943436C19435160818C09066B
:101B400007D501684A680123DB04806C9A4302438D
:101B50004A6010BDF8B500260446C667FEF72CFDA6
:101B6000054620680068124F000709D501212B4661
:101B7000002249052046009700F0C0F800280DD14A
:101B80002068006840070BD501212B4600228905FB
:101B90002046009700F0B2F8002801D00320F8BDDD
:101BA00020206067A067603426740020F8BD000024
:101BB000FFFFFF0170B5044680682169E2690843B0
:101BC000616900251143226808431168444B19409C
:101BD0000143116021684868032212039043E268C0
:101BE00010434860A169206A2268084391680B236A
:101BF0001B029943014391603A492068884210D101
:101C00003948006B8007800F11D0012805D00228C9
:101C100005D003280AD1022009E0042007E00820AB
:101C200005E03249884201D1002000E01020012265
:101C3000E169D2032E4E914228D1002806D0022815
:101C400007D0042817D0082844D11AE0FEF718FE60
:101C500013E06168274A48088018FEF747FA80B207
:101C600001461039B14235D82149491C01400007CD
:101C7000400F084321E0FEF713FE616840004A0868
:101C8000EAE76168012248081204E5E7002806D067
:101C9000022807D0042813D008281BD116E0FEF72D
:101CA000EFFD0FE06168144A480811E0FEF71EFAE4
:101CB00080B201461039B1420CD82168C8600AE0F0
:101CC000FEF7EEFD61684A081018EFE76168480802
:101CD0008018EBE70125002020666066284670BD6D
:101CE000F369FFFF0038014000100240004400404B
:101CF000EFFF00000024F40000127A00FFB581B06D
:101D000005460F46044660350A9E38E0701C36D002
:101D1000FEF752FC0499401AB04221D8002E1FD081
:101D20002068016849072AD5C069C043000526D448
:101D300001202168C002086220680168FF22A132E8
:101D40009143016020688168490849008160202032
:101D50006067A067E06700202874032005B0F0BD2D
:101D600020680168FF22A1329143016020688168E8
:101D700049084900816020206067A067EBE7206880
:101D8000C1693846884305D0002103988142BDD0FF
:101D90000020E3E70121F8E7F8B5040C8BB22646F2
:101DA00082B25E430D0C1046370C5843360480193E
:101DB0000021794116466E43370C3604801979416B
:101DC00026466E438919F8BD8307FF22DB0E9A4031
:101DD0008907090E9940002808DB830809489B0001
:101DE0001B18186890430843186070470007000FDD
:101DF0000838830804489B001B18D869904308439F
:101E0000D861704700E400E000ED00E002E008C89F
:101E1000121F08C1002AFAD170477047002001E064
:101E200001C1121F002AFBD1704700001CB5FEF74C
:101E3000D1FBFFF7E2FDFFF759FC2048416901257E
:101E400029434161406900222840009011460A2040
:101E5000FEF712FC0A20FEF703FCFFF7D9FCFFF7A0
:101E6000F9FC0024174900941548019408600846BD
:101E7000FEF72CFA00940022694612480194FEF7FE
:101E80000BFAFFF7B5FBFF24F5342046FEF7D8FA2E
:101E9000FFF719F90C490868402290430860086868
:101EA000284308600868104008602046FEF7C8FA1A
:101EB000FEF7A8F9FFF7D5FDFCE70000001002408F
:101EC00000740040100000200030014000000000BD
:101ED00000000000010203040607080900000000DA
:101EE00001020304041F000800000020100000008D
:101EF0000C1E0008141F0008100000204005000000
:101F00001C1E000800127A000100000004000000FE
:041F100000000000CD
:04000005080000BD32
:00000001FF
