:020000040800F2
:1000000050050020D100000809180008C51000089C
:1000100000000000000000000000000000000000E0
:10002000000000000000000000000000751900083A
:1000300000000000000000000B18000877190008FD
:10004000E3000008E3000008E3000008E300000804
:10005000E3000008E3000008E3000008E3000008F4
:10006000E3000008E300000859020008E30000086C
:10007000E3000008E3000008E3000008E3000008D4
:10008000E3000008E300000800000000E3000008AF
:10009000E3000008E3000008E3000008E3000008B4
:1000A000E3000008E3000008E3000008E3000008A4
:1000B000E300000800000000E30000080348854654
:1000C00000F08EF8004800478D1D00085005002004
:1000D0000448804704480047FEE7FEE7FEE7FEE7E6
:1000E000FEE7FEE7E9190008BD00000830B50B4641
:1000F000014600202022012409E00D46D5409D4202
:1001000005D31D469540491B254695404019154687
:10011000521E002DF1DC30BDF0B51FB406460020A4
:1001200082B005464024019100901BE001992246CF
:100130000F46304600F020F8049A059B801A99413A
:1001400010D310461946224600F039F8361A8F416E
:100150000197224601200021009F00F030F8381856
:100160004D4100902046641E0028DFDC019B009872
:100170002946324607B0F0BD10B5202A04DB0846F8
:10018000203AD040002110BD0B46D340D04020245F
:10019000A21A91400843194610BDD2B201E0027084
:1001A000401C491EFBD270470022F6E710B51346EB
:1001B0000A4604461946FFF7F0FF204610BD10B569
:1001C000202A04DB0146203A9140002010BD9140D6
:1001D00020239C1A0346E3401943904010BD0000C1
:1001E000064C0125064E05E0E36807CC2B430C3C8A
:1001F00098471034B442F7D3FFF764FF481E000855
:10020000681E0008F8B50B20C0026946088001246A
:100210000F4DA40200222146284600F0C7F9012212
:100220000221284600F0C2F97D26F600304600F093
:100230002DF8642302226946064800F003FE30468A
:1002400000F024F801222146284600F0AFF9F8BD5D
:10025000000400482400002010B5024800F078F89F
:1002600010BD00000801002010B5044600680549D3
:1002700040181421FFF73AFF800020640248E06331
:1002800010BD0000F8FFFDBF0000024000E0401E6E
:100290000028FCD17047704770B54379012B13D00B
:1002A0000125457102230371066834683E2393409B
:1002B0009C430B6849680B439340234333600571AB
:1002C00000214171084670BD022070BD70B5040068
:1002D00004D020790025002802D005E0012070BD5F
:1002E0006571204600F008F8022020712561012088
:1002F0002071002070BD000010B586B004461421A6
:100300006846FFF751FF10492068884219D10F480D
:10031000C26941040A43C261C2690A400592426946
:1003200009130A434261406908400590102000907B
:10033000032001900020029009206946C00600F0C9
:1003400091F806B010BD000000740040001002409B
:10035000F0B4C16B0D6801680C680422066C13468A
:10036000B3402B420DD063070BD50B689B0602D41C
:100370000B6893430B60016C8A40C16B4A60C16A91
:1003800019E00227B74002462F4001232032002FF8
:1003900015D0A70713D50C68A40604D40C680A2549
:1003A000AC430C605370036C02219940C36B5960DD
:1003B00000211170816A002916D0F0BC0847082777
:1003C000B7402F4210D024070ED50C680E25AC4341
:1003D0000C60046C1946A140C46B61608363537068
:1003E00000211170016BE6E7F0BC704770B50400A6
:1003F00021D0022120462030054641702268116834
:100400000E48A3680140606826691843E3683343D7
:10041000184363691843A3691843E3691843084301
:1004200010602046FFF720FF0021A16301206870C3
:100430002970084670BD012070BD00000FC0FFFF8D
:1004400070B5044600F0B8F80546601C02D00448B8
:100450000078241800F0B0F8401BA042FAD370BD19
:1004600004000020F8B500238DE001249C40A44640
:1004700022407DD04C68022C01D0122C0CD1DC081B
:10048000A40027183C6A5D07ED0E0F26AE40B4436A
:100490000E69AE4026433E6205685E000324B44008
:1004A0000F79A543BF07BF0FB7402F4307604D68C3
:1004B000012D05D0022D03D0112D01D0122D0ED10A
:1004C0008568CF68A543B7402F4387604768654676
:1004D000AF430D79ED06ED0F9D403D434560C56886
:1004E000A5438C68B4402C43C4604C68E40049D5F3
:1004F000284CA56901263543A561A4699D083440AF
:100500000094254CAD002F19BC689D072E0F0F25B8
:10051000B540AC430925ED06A84201D100250FE006
:100520001E4DA84201D101250AE01D4DA84201D16E
:10053000022505E01B4DA84201D1032500E0052559
:10054000B5402543BD60184C25684E689543F603B9
:1005500000D51543256065684E689543B60300D500
:1005600015436560A5684E689543F60202D500E024
:1005700008E01543A560E5684E689543B60200D5CE
:100580001543E5605B1C0A681446DC4000D06CE74C
:10059000F8BD0000001002400000014000040048C7
:1005A00000080048000C004800040140002A01D067
:1005B0008161704781627047014880687047000020
:1005C0000400002002488168027889188160704721
:1005D0000400002010B50648016810221143016094
:1005E000002000F007F800F027F8002010BD000000
:1005F0000020024070B504460D4D7D202978C000D2
:10060000FFF774FD01460B480068FFF76FFD00F02F
:10061000D9FC002809D1042C07D200222146401E13
:1006200000F02AF800206C6070BD012070BD000051
:10063000040000200000002008B50848816901225C
:1006400011438161816911400091C26901040A432B
:10065000C261C0690840009008BD0000001002405F
:10066000002805DBC106C90E012088400149086049
:100670007047000000E100E010B501F055FB10BD2F
:10068000F8B505460068394CC00352D5E06900262C
:10069000C00007D4E16920040143E161E169014040
:1006A0000126009132480168C90510D401688215FD
:1006B00011430160FFF780FF074604E0FFF77CFF6E
:1006C000C01B642824D82A480068C005F6D5206AD3
:1006D00003273F02384020D06968394081421CD04E
:1006E000206A226AB843012109040A432262226A6D
:1006F0008A4322622062C0070FD0FFF75DFF00909F
:1007000008E0FFF759FF0099411A1A48814201D9C0
:100710000320F8BD206A8007F3D5206A6968B843D2
:1007200008432062002E04D0E169012000078143C4
:10073000E1612878C00705D0206BA9688008800097
:10074000084320632878800605D5206B1021884354
:10075000E968084320632888400505D5206B4021BF
:1007600088432969084320630020F8BD0010024037
:100770000070004088130000F8B50F46060059D0FD
:100780003A4D2868C007C00FB84209D2286840080F
:100790004000384328602868C007C00FB84249D1DC
:1007A0003068334C81070CD5400704D560680721B9
:1007B0000902084360606068F0218843B16808431B
:1007C00060603078C00726D0706801280ED021689C
:1007D00002280ED0890700292CDA6168890889006F
:1007E00001436160FFF7E8FE00900DE02168890396
:1007F000F1E78901EFE7FFF7DFFE0099411A1D4895
:10080000814201D90320F8BD60680C21084071685D
:1008100089008842EFD12868C007C00FB8420BD9C1
:10082000286840084000384328602868C007C00F87
:10083000B84201D00120F8BD3078400706D5606885
:10084000072109028843F1680843606000F028F836
:100850006168094A0906090F515CC84007490860E8
:100860000020FFF7C7FE0020F8BD00000020024076
:100870000010024088130000301E00080000002015
:100880000448054900684968044A4905490F515C14
:10089000C84070470000002000100240401E0008C1
:1008A00010B515A30FCB88B06C460FC416A30FCBA1
:1008B0000FC4194A51680C200B4603401748042BFB
:1008C00002D0082B02D0164808B010BD8B021B0FB7
:1008D0006C46E45CD26A04AB1207120F9A5CC9033F
:1008E00005D500231946FFF717FC214601E02046F5
:1008F0000C4901F001FAE7E70203040506070809BD
:100900000A0B0C0D0E0F1010010203040506070858
:10091000090A0B0C0D0E0F1000100240001BB7004F
:1009200000127A0000093D0030B587B00220019026
:100930000320039000200D46FF2101310C4C029052
:100940000091049061690120400401436161616983
:100950000140059109206946C006FFF783FD6068E4
:100960000F21090688432843606007B030BD0000AE
:1009700000100240FEB5040070D02078DC4DC007A6
:100980004AD068680007800F012807D06868000710
:10099000800F022809D16868C00306D52868800343
:1009A0003AD560680028E7D036E06168012914D0A4
:1009B00001208004002901D0052914D02A680121D2
:1009C00009048A432A6029688143296060680028F5
:1009D00016D0FFF7F1FD06460EE028680121090454
:1009E00008432860F2E7296801432960F5E7FFF72B
:1009F000E3FD801B64286ED828688003F7D50BE0E0
:100A0000FFF7DAFD064604E0FFF7D6FD801B6428F9
:100A1000F1D828688003F7D42078012680070028C1
:100A20003CDA68680007800F07D068680007800F0D
:100A3000022809D16868C00306D42868800716D543
:100A4000E06801280AD112E0E0680028286816D082
:100A500030432860FFF7B0FD074605E043E1FFF7AC
:100A6000ABFDC01B0228C6D828688007F7D52868C8
:100A7000F82188432169C900084328600EE0400836
:100A800040002860FFF798FD074604E0FFF794FD5B
:100A9000C01B0228AFD828688007F7D42078000749
:100AA00022D5E0690028686A0ED030436862FFF7FB
:100AB00083FD074604E0FFF77FFDC01B02289AD89C
:100AC000686A8007F7D50FE0400840006862FFF7CA
:100AD00073FD074605E09DE0FFF76EFDC01B022891
:100AE00089D8686A8007F7D420780427400700284F
:100AF00060DA00200190E869C00008D4E969B8060E
:100B00000143E961E96901400120009101907948C0
:100B10000168C90511D40168821511430160FFF70E
:100B20004BFD009005E0FFF747FD0099401A64284F
:100B300070D870480068C005F5D5A06801280AD0B3
:100B4000002801D0052810D0286A400840002862FB
:100B5000286AB84301E0286A30432862A068002868
:100B600012D0FFF729FD00900AE0286A3843286276
:100B7000F1E7FFF721FD0099411A5F48814249D80A
:100B8000286A8007F5D50DE0FFF716FD009006E016
:100B9000FFF712FD0099411A574881423AD8286A56
:100BA0008007F5D40198002804D0E96901200007E6
:100BB0008143E9612078C00635D5606901280CD0F1
:100BC000401D686B23D038436863686B4008400061
:100BD0006863FFF7F1FC064622E0686B3843686300
:100BE000686B30436863FFF7E7FC064604E0FFF7F5
:100BF000E3FC801B02285BD8686B8007F7D5686B25
:100C0000F8218843A169C900084368630BE0B84331
:100C10006863F4E74CE0FFF7CFFC801B022847D85D
:100C2000686B8007F7D4206A00285ED069680907DE
:100C3000890F022942D0012636060228286805D0ED
:100C4000B0432860FFF7B8FC044633E0B0432860A7
:100C5000FFF7B2FC074604E0FFF7AEFCC01B02281A
:100C600026D828688001F7D4E86AE16A0009000103
:100C70000843E862616AA06A084369683D22120479
:100C8000914308436860286830432860FFF794FC6C
:100C9000044604E0FFF790FC001B022808D82868EF
:100CA0008001F7D521E0FFF787FC001B022801D95E
:100CB0000320FEBD28688001F5D416E00128F8D095
:100CC0006868E96A01221204636A02409A420AD102
:100CD0000907E26A090F914205D10F2189040840F2
:100CE000A16A884201D00120FEBD0020FEBD0000A7
:100CF000001002400070004088130000F8B50400A6
:100D000007D0002625464035A662687F002802D01D
:100D100005E00120F8BD2E77204600F04BF80223B5
:100D20006B77206801684022914301600721E068E9
:100D30000902884201D9002201E0012212030F2793
:100D40003F02B84202D0884200D0A662276B002F33
:100D500005D1884201D9236301E001202063A16805
:100D60006068636908432169194308430123A16945
:100D70005B0219400843E1690843216A0843A16AFC
:100D8000084321680860616B606AA36908431B0C13
:100D90000427E1683B401943084321681043486039
:100DA0002068C1697A029143C16126660120687793
:100DB0000020F8BD70B586B0064614216846FFF7DE
:100DC000F3F91C493068884231D11B498A69801483
:100DD00002438A618A69024005924A6940010243DE
:100DE0004A614969002501400591A0200090022038
:100DF0000190032003900920029569460495C006DE
:100E0000FFF730FB0E4C0D4820601020A56060609D
:100E100025616561A5618020E561E0602046FFF7FE
:100E2000E5FA002801D0FFF736FA7465666206B06D
:100E300070BD000000300140001002403000024050
:100E400008010020FFB5054604464035287F0027ED
:100E500081B01646012809D001202877FFF7ACFBA6
:100E60000090687F012804D00227A5E0022005B089
:100E7000F0BD0298002870D0002E6ED00320687755
:100E8000002020660299A163A687E6872064A880D7
:100E9000E8802065E0640121A068C903884205D18B
:100EA00020680168012292031143016020680168F3
:100EB000490603D401684022114301600720E1681C
:100EC00000028142606826D9002801D0012E1ED17F
:100ED000A06B21680088C86006E0206881688907E7
:100EE00009D5A16B0988C160A06B801CA063E08F4D
:100EF000401EE0870BE0FFF75FFB0099411A049862
:100F0000814202D3401C02D04CE000284AD0E08F3E
:100F10000028E2D139E0002801D0012E32D1E08F43
:100F20000128A06B03D921680088C8600FE0216800
:100F30000078087314E0E08724E02068816889075E
:100F400014D5E18F0129A16B08D90988C160A06B74
:100F5000801CA063E08F801EEDE72CE00978017310
:100F6000A06B401CA063E08F401EE4E7FFF724FB6A
:100F70000099411A0498814202D3401C02D011E02A
:100F800000280FD0E08F0028D7D12046009A04997E
:100F900000F03CFC002801D020202066A06800283A
:100FA00002D005E0032707E02068C1688068009050
:100FB000206E002800D001270120687700202877C4
:100FC000384654E7094910B5401E884201D901202E
:100FD00010BD074C60610321081F00F0A5FE002032
:100FE000A06107202061002010BD0000FFFFFF006E
:100FF00000E000E010B5040003D0606F002802D0CC
:1010000007E0012010BD002170200155204600F0AE
:1010100027F82420606720680168490849000160BA
:10102000204600F077FD0128ECD0606A002802D04D
:10103000204600F0DAFC206841680922D202914380
:101040004160206881682A2291438160206801689C
:10105000012211430160204600F02CFD10BD00006C
:1010600010B586B0044614216846FFF79DF8134971
:10107000206888421FD112488269012189030A43EE
:10108000826182690A4005924269C9000A4342614D
:101090004069084005900320400200900220019022
:1010A000002002900320039001200490092069464B
:1010B000C006FFF7D7F906B010BD000000380140A8
:1010C00000100240FEE710B500228D21104600F00E
:1010D0008FFA00228C21104600F08AFAC8228B2158
:1010E000002000F085FA00228A21104600F080FAE4
:1010F00000228921104600F07BFA00228821104648
:1011000000F076FA00228721104600F071FA0022E2
:101110008621104600F06CFA00228521104600F06E
:1011200067FAC8228421002000F062FA002283219D
:10113000104600F05DFA00228221104600F058FAB5
:1011400000228121104600F053FA0022802110462F
:1011500000F04EFA00227F21104600F049FA0022EA
:101160007E21104600F044FAC8227D21002000F0C4
:101170003FFA00227C21104600F03AFA00227B213F
:10118000104600F035FA00227A21104600F030FABD
:1011900000227921104600F02BFA00227821104617
:1011A00000F026FA50227721002000F021FA0022D8
:1011B0007621104600F01CFA3F227521002000F035
:1011C00017FAFF227421002000F012FAF022732196
:1011D000002000F00DFA66227221002000F008FACB
:1011E00080227121002000F003FA5022702100209B
:1011F00000F0FEF900226F21104600F0F9F90022FC
:101200006E21104600F0F4F900226D21104600F026
:10121000EFF90F226C21002000F0EAF99A226B21ED
:10122000002000F0E5F962226A21002000F0E0F9D8
:1012300050226921002000F0DBF9002268211046CD
:1012400000F0D6F93F226721002000F0D1F9FF22FB
:101250006621002000F0CCF9EB226521002000F08F
:10126000C7F933226421002000F0C2F94022632133
:10127000002000F0BDF950226221002000F0B8F9F2
:1012800000226121104600F0B3F9002260211046CF
:1012900000F0AEF900225F21104600F0A9F91422F7
:1012A0005E21002000F0A4F9CD225D21002000F095
:1012B0009FF92D225C21002000F09AF950225B2139
:1012C000002000F095F900225A21104600F090F914
:1012D00000225921104600F08BF9002258211046B7
:1012E00000F086F900225721104600F081F9002213
:1012F0005621104600F07CF900225521104600F0DE
:1013000077F900225421104600F072F9002253218F
:10131000104600F06DF918225221002000F068F903
:1013200000225121104600F063F90022502110469E
:1013300000F05EF900224F21104600F059F9FF221B
:101340004E21002000F054F900224D21104600F0FB
:101350004FF900224C21104600F04AF900224B219F
:10136000104600F045F900224A21104600F040F9ED
:1013700000224921104600F03BF900224821104686
:1013800000F036F900224721104600F031F908221A
:101390004621002000F02CF901224521002000F018
:1013A00027F906224421002000F022F9802243215F
:1013B000002000F01DF900224221104600F018F92B
:1013C00000224121104600F013F9012240210020A3
:1013D00000F00EF900223F21104600F009F900222A
:1013E0003E21104600F004F900223D21104600F095
:1013F000FFF800223C21104600F0FAF800223B21C1
:10140000104600F0F5F831223A21002000F0F0F803
:1014100000223921104600F0EBF800222D21104661
:1014200000F0E6F800222C21104600F0E1F800223E
:101430002B21104600F0DCF800222A21104600F093
:10144000D7F800222921104600F0D2F800222821E6
:10145000104600F0CDF852222721002000F0C8F8F5
:101460001F222621002000F0C3F8FA2225210020A7
:1014700000F0BEF8F2222421002000F0B9F8412249
:101480002321002000F0B4F8A4222221002000F043
:10149000AFF820222121002000F0AAF8002220210C
:1014A000104600F0A5F82A221F21002000F0A0F825
:1014B00006221E21002000F09BF800221D2110466C
:1014C00000F096F81F221C21002000F091F808225D
:1014D0001B21002000F08CF800221A21104600F099
:1014E00087F832221921002000F082F8002218210A
:1014F000104600F07DF800221721104600F078F821
:1015000000221621104600F073F800221521104623
:1015100000F06EF800221421104600F069F8002255
:101520001321104600F064F82C221221002000F054
:101530005FF802221121002000F05AF8EF2210215A
:10154000002000F055F800220F21104600F050F85E
:1015500000220E21104600F04BF800220D2110460B
:1015600000F046F800220C21104600F041F800225D
:101570000B21104600F03CF800220A21104600F032
:1015800037F800220921104600F032F80022082125
:10159000104600F02DF800220721104600F028F830
:1015A00000220621104600F023F8002205211046F3
:1015B00000F01EF800220421104600F019F8002265
:1015C0000321104600F014F801220221002000F04F
:1015D0000FF800220121104600F00AF8002118221D
:1015E000084600F005F87D20C000FEF74FFE10BD54
:1015F00037B568460178017001790171017A01728D
:10160000194C002202212046FEF7D0FF0122910250
:101610002046FEF7CBFF6420FEF738FE642301224C
:1016200069461248FFF70EFC6420FEF72FFE642384
:10163000012201A90D48FFF705FC6420FEF726FEF4
:101640006423012202A90948FFF7FCFB6420FEF78E
:101650001DFE012202212046FEF7A8FF7D20C000CA
:10166000FEF714FE3EBD00000004004824000020E8
:10167000F0B587B014216846FEF796FD3E484269F2
:101680000121C9040A43426142690A400592426944
:10169000C9000A43426142690A4005924269491100
:1016A0000A43426142690A400592426949000A437D
:1016B000426140690022084009210590C806FEF7F2
:1016C00075FF2E4F002239462D48FEF76FFF072089
:1016D000400303250024009069460195029429489F
:1016E000FEF7C0FEC320009069460195029426488B
:1016F000FEF7B8FE09200126009002946946019683
:101700000394C006FEF7AEFE20480090092069460B
:1017100001950294C006FEF7A5FE0294694618489A
:10172000009701960394FEF79DFE0420009001941B
:10173000694602941248FEF795FE154800906946E6
:10174000019502940E48FEF78DFE300200900220B3
:10175000019009200294039469460494C006FEF7A0
:1017600081FEF00200900920019469460294C006AF
:10177000FEF778FE07B0F0BD001002400304000041
:10178000000400480008004800140048469000008B
:10179000F8FB000010B50F480D490160FF2105312D
:1017A000416000210722816012020161C2600122B2
:1017B000416152028261016230224162C2618162F2
:1017C0000722C262016308214163FFF797FA10BD47
:1017D000003001402400002010B50A48084901608B
:1017E0004B214902416000218160C160016181613A
:1017F000C1610C22016242614162FFF7FBFB10BD37
:10180000003801408800002070477047F8B50F4647
:101810000B4615460092032104460022C90200F03F
:101820001BF82026002812D13B46002280212046AA
:10183000009500F059F8002809D103213B46002209
:1018400049022046009500F007F8002803D0206EDA
:10185000304320660320F8BDF8B51D4617460E46F6
:10186000044610E0032149028E4202D1002F00D12C
:10187000007B681C07D0FEF79FFE0699401AA8421D
:1018800008D2002D06D0206881683140B942E9D1E4
:101890000020F8BD20684168E02291434160606803
:1018A000C11FFD390CD10121A068C903884202D0B3
:1018B0004911884204D120680168402291430160A7
:1018C0000120A16A4003814207D121680A6882434E
:1018D0000A6021680A6802430A6001204034607788
:1018E000002020770320F8BDF8B51D4617460E46A8
:1018F000044609E0681C07D0FEF75EFE0699401A10
:10190000A8420BD2002D09D0206881683046884358
:101910002ED00020B842EDD10020F8BD20684168EB
:10192000E022914341606068C11FFD390CD1012163
:10193000A068C903884202D04911884204D12068B6
:1019400001684022914301600120A16A4003814265
:1019500007D121680A6882430A6021680A68024345
:101960000A60012040346077002020770320F8BD12
:101970000120CFE7704710B5FEF724FE10BD70B50B
:1019800096B030216846FEF70FFC00240C940D94AD
:101990000E94142110A80F94FEF706FC0A20009064
:1019A00010200994049001250520C0040395022607
:1019B0000A90089607950B946846FEF7DBFF072010
:1019C0000C900E9401210D960F940CA8FEF7D4FEF6
:1019D00010A810951294FEF753FE002269061046D7
:1019E000FEF7A2FF16B070BD704710B5818CC90715
:1019F00007D001684A6801235B049A43836A1A434B
:101A00004A60818C890707D501684A6801231B0455
:101A10009A43C36A1A434A60818C490707D5016813
:101A20004A6801239B049A43036B1A434A60818CE2
:101A3000090707D501684A680123DB039A43436B12
:101A40001A434A60818CC90607D502689168012350
:101A50001B039943836B19439160818C890607D5D9
:101A600001688A6801235B039A43C36B1A438A6047
:101A7000818C490612D503685A6801210905046C56
:101A80008A4322435A60026C8A4207D10268516835
:101A900003235B059943436C19435160818C09060C
:101AA00007D501684A680123DB04806C9A4302432E
:101AB0004A6010BDF8B500260446C667FEF77CFDF7
:101AC000054620680068124F000709D501212B4602
:101AD000002249052046009700F0C0F800280DD1EB
:101AE0002068006840070BD501212B46002289059C
:101AF0002046009700F0B2F8002801D00320F8BD7E
:101B000020206067A067603426740020F8BD0000C4
:101B1000FFFFFF0170B5044680682169E269084350
:101B2000616900251143226808431168444B19403C
:101B30000143116021684868032212039043E26860
:101B400010434860A169206A2268084391680B230A
:101B50001B029943014391603A492068884210D1A1
:101B60003948006B8007800F11D0012805D002286A
:101B700005D003280AD1022009E0042007E008204C
:101B800005E03249884201D1002000E01020012206
:101B9000E169D2032E4E914228D1002806D00228B6
:101BA00007D0042817D0082844D11AE0FEF768FEB1
:101BB00013E06168274A48088018FEF797FA80B258
:101BC00001461039B14235D82149491C014000076E
:101BD000400F084321E0FEF763FE616840004A08B9
:101BE000EAE76168012248081204E5E7002806D008
:101BF000022807D0042813D008281BD116E0FEF7CE
:101C00003FFE0FE06168144A480811E0FEF76EFAE3
:101C100080B201461039B1420CD82168C8600AE090
:101C2000FEF73EFE61684A081018EFE76168480851
:101C30008018EBE70125002020666066284670BD0D
:101C4000F369FFFF003801400010024000440040EB
:101C5000EFFF00000024F40000127A00FFB581B00D
:101C600005460F46044660350A9E38E0701C36D0A3
:101C7000FEF7A2FC0499401AB04221D8002E1FD0D2
:101C80002068016849072AD5C069C043000526D4E9
:101C900001202168C002086220680168FF22A13289
:101CA00091430160206881684908490081602020D3
:101CB0006067A067E06700202874032005B0F0BDCE
:101CC00020680168FF22A132914301602068816889
:101CD00049084900816020206067A067EBE7206821
:101CE000C1693846884305D0002103988142BDD0A0
:101CF0000020E3E70121F8E7F8B5040C8BB2264693
:101D000082B25E430D0C1046370C584336048019DE
:101D10000021794116466E43370C3604801979410B
:101D200026466E438919F8BD8307FF22DB0E9A40D1
:101D30008907090E9940002808DB830809489B00A1
:101D40001B18186890430843186070470007000F7D
:101D50000838830804489B001B18D869904308433F
:101D6000D861704700E400E000ED00E002E008C840
:101D7000121F08C1002AFAD170477047002001E005
:101D800001C1121F002AFBD1704700001CB5FEF7ED
:101D900021FCFFF7F4FDFFF76BFC214841690125A9
:101DA00029434161406900222840009011460A20E1
:101DB000FEF762FC0A20FEF753FCFFF7EBFCFFF78F
:101DC0000BFD002418490094164801940860084649
:101DD000FEF77CFA00940022694613480194FEF74E
:101DE0005BFAFFF770F9FF27F5373846FEF728FB57
:101DF0000E4C20684026B04320603846FEF720FB9A
:101E00002068284320603846FEF71AFB20683040DF
:101E100020603846FEF714FBFEF7F4F9FEE70000F9
:101E2000001002400074004010000020003001400B
:101E3000000000000000000001020304060708097A
:101E40000000000001020304681E000800000020DA
:101E5000100000006C1D0008781E00081000002013
:101E6000400500007C1D000800127A0001000000FF
:081E7000040000000000000066
:04000005080000BD32
:00000001FF
